:100000000C942A000C943F000C943F000C943F0089
:100010000C943F000C943F000C943F000C943F0064
:100020000C943F000C943F000C943F000C943F0054
:100030000C943F000C943F000C943F000C943F0044
:100040000C943F000C943F000C943F000C943F0034
:100050000C943F0011241FBECFE5D8E0DEBFCDBF1A
:1000600011E0A0E6B0E0ECE7F2E102C005900D92ED
:10007000A837B107D9F70E94C4080C943C090C9426
:100080000000A0E2B0E0E7E4F0E00C940509698329
:100090007A838B839C832D833E834F835887CE0145
:1000A0000196BE01675F7F4F0E940803CE0105964F
:1000B000BE016F5E7F4F0E9408039985923088F0E1
:1000C00089898230C8F0943019F4823051F404C028
:1000D000843029F4923081F480E690E0C6C09230FA
:1000E00049F420E09A858A89981321E02A87CE0175
:1000F0000996BBC0823049F420E09A858A8998131A
:1001000021E02A8BCE014196B0C02D843E844F84DD
:1001100058886D887E888F88988CEE24FF2487010C
:10012000AA24BB24650140E050E060E070E0E0E01C
:10013000F0E0C10181709070892BE9F0E60CF71CAA
:10014000081D191D9A01AB012A0D3B1D4C1D5D1D9B
:1001500080E090E0A0E0B0E0E614F704080519059F
:1001600020F481E090E0A0E0B0E0BA01A901480FDE
:10017000591F6A1F7B1FAA0CBB1CCC1CDD1C97FEE1
:1001800008C081E090E0A0E0B0E0A82AB92ACA2A1D
:10019000DB2A3196E032F10549F0660C771C881CA9
:1001A000991C5694479437942794C3CFFA85EA89CB
:1001B0002B893C898B859C85280F391F2E5F3F4FEB
:1001C00017C0CA0181709070892B61F01695079550
:1001D000F794E79480E090E0A0E0B0E8E82AF92AFC
:1001E0000A2B1B2B76956795579547952F5F3F4FA9
:1001F00077FDE7CF0CC0440F551F661F771F17FD13
:100200004160EE0CFF1C001F111F21503040403098
:1002100090E0590790E0690790E4790760F32B8F2D
:100220003C8FDB01CA018F779070A070B070803472
:100230009105A105B10561F447FD0AC0E114F1047F
:100240000105110529F0405C5F4F6F4F7F4F4078EB
:100250001A8EFE1711F081E08A8F4D8F5E8F6F8F9F
:1002600078A383E0898FCE0149960E943302A0963D
:10027000E2E10C942109A8E1B0E0E1E4F1E00C94A2
:10028000110969837A838B839C832D833E834F83FB
:10029000588789E0E82EF12CEC0EFD1ECE01019668
:1002A000B7010E9408038E010F5E1F4FCE01059615
:1002B000B8010E9408038985823040F08989823024
:1002C00028F0C701B8010E94800301C081E0689650
:1002D000E6E00C942D09A8E0B0E0E1E7F1E00C9431
:1002E0000D097B018C01611571058105910519F4DA
:1002F00082E0898360C083E089838EE1C82ED12C9F
:10030000DC82CB82ED82FE820F831887C801B701A1
:100310000E94E401FC013197F7FF3BC022273327FD
:100320002E1B3F0B57016801022E04C0D694C794C0
:10033000B794A7940A94D2F740E050E060E070E0F0
:1003400081E090E0A0E0B0E004C0880F991FAA1FF0
:10035000BB1F2A95D2F70197A109B1098E219F21D0
:10036000A023B1230097A105B10521F041E050E0A1
:1003700060E070E04A295B296C297D294D835E830A
:100380006F8378878EE190E08E1B9F0B9C838B831D
:1003900012C0309781F00E2E04C0EE0CFF1C001F1F
:1003A000111F0A94D2F7ED82FE820F831887CE1AAE
:1003B000DF0ADC82CB821A82CE0101960E943302D0
:1003C0002896EAE00C942909EF92FF920F931F936D
:1003D0007B018C0180E0E81680E0F80681E00807E8
:1003E00080E0180788F48FEFE816F1040105110585
:1003F00031F028F088E090E0A0E0B0E017C080E0A5
:1004000090E0A0E0B0E012C080E0E81680E0F806DE
:1004100080E0080781E0180728F088E190E0A0E07C
:10042000B0E004C080E190E0A0E0B0E020E230E085
:1004300040E050E0281B390B4A0B5B0B04C01695BB
:100440000795F794E7948A95D2F7F701E859FF4F9B
:100450008081281B310941095109C9011F910F9160
:10046000FF90EF900895DF92EF92FF920F931F930A
:10047000FC01E480F58006811781D1808081823083
:1004800048F480E090E0A0E1B0E0E82AF92A0A2BE5
:100490001B2BA5C0843009F49FC0823021F4EE24C8
:1004A000FF24870105C0E114F1040105110519F4C9
:1004B000E0E0F0E096C0628173819FEF62387907D7
:1004C0000CF05BC022E83FEF261B370B2A313105C9
:1004D0002CF020E030E040E050E02AC0B801A70155
:1004E000022E04C076956795579547950A94D2F7E2
:1004F00081E090E0A0E0B0E004C0880F991FAA1F3F
:10050000BB1F2A95D2F70197A109B1098E219F211E
:10051000A023B1230097A105B10521F081E090E06F
:10052000A0E0B0E09A01AB01282B392B4A2B5B2BC2
:10053000DA01C9018F779070A070B0708034910596
:10054000A105B10539F427FF09C0205C3F4F4F4F8B
:100550005F4F04C0215C3F4F4F4F5F4FE0E0F0E042
:100560002030A0E03A07A0E04A07A0E45A0710F0C4
:10057000E1E0F0E079018A0127C06038710564F597
:10058000FB01E158FF4FD801C7018F779070A07031
:10059000B07080349105A105B10539F4E7FE0DC0B6
:1005A00080E490E0A0E0B0E004C08FE390E0A0E041
:1005B000B0E0E80EF91E0A1F1B1F17FF05C01695B5
:1005C0000795F794E794319687E016950795F79489
:1005D000E7948A95D1F705C0EE24FF248701EFEF59
:1005E000F0E06E2F679566276795902F9F77D794D9
:1005F000DD24D7948E2F8695492F462B582F5D29C1
:10060000B701CA011F910F91FF90EF90DF900895FD
:10061000FC01DB01408151812281622F6F7770E004
:10062000221F2227221F9381892F880F822B282F98
:1006300030E0991F9927991F11969C9311972115C6
:100640003105A9F5411551056105710511F482E0E7
:1006500037C082E89FEF13969C938E9312979A016E
:10066000AB0167E0220F331F441F551F6A95D1F776
:1006700083E08C930DC0220F331F441F551F129629
:100680008D919C911397019713969C938E9312973B
:10069000203080E0380780E0480780E4580758F3AE
:1006A00014962D933D934D935C93179708952F3F88
:1006B000310579F4411551056105710519F484E09E
:1006C0008C93089564FF03C081E08C9312C01C9248
:1006D00010C02F57304013963C932E93129783E00F
:1006E0008C9387E0440F551F661F771F8A95D1F7BB
:1006F000706414964D935D936D937C931797089552
:100700001F93DC01FB019C91923008F447C080816B
:10071000823008F443C0943051F411961C91843017
:1007200099F58181682F70E0611B71093FC08430A9
:1007300021F0923031F48230B9F18181882389F13E
:100740002DC011961C9111978230F1F081811817FC
:10075000D9F412962D913C9113978281938182173F
:10076000930794F028173907BCF014968D919D914A
:100770000D90BC91A02D2481358146815781281789
:1007800039074A075B0718F4112341F00AC08217A2
:100790009307A407B50740F4112319F061E070E056
:1007A00005C06FEF7FEF02C060E070E0CB011F91EA
:1007B000089585B7826085BF85B78E7F85BF8BB76B
:1007C00080648BBF08958FB780688FBF08958FB7FF
:1007D0008F778FBF08954423D1F58130A1F0813008
:1007E00030F08230E1F0833009F067C024C02AB3D2
:1007F00081E090E002C0880F991F6A95E2F780952A
:1008000082238ABB089527B381E090E002C0880F5D
:10081000991F6A95E2F78095822387BB089524B3D8
:1008200081E090E002C0880F991F6A95E2F78095F9
:10083000822384BB089521B381E090E002C0880F39
:10084000991F6A95E2F78095822381BB0895413014
:10085000A1F5813091F0813028F08230C9F08330E9
:1008600061F521C02AB381E090E002C0880F991F92
:100870006A95E2F7282B2ABB089527B381E090E020
:1008800002C0880F991F6A95E2F7282B27BB0895AD
:1008900024B381E090E002C0880F991F6A95E2F7C7
:1008A000282B24BB089521B381E090E002C0880F7B
:1008B000991F6A95E2F7282B21BB08954130B1F5C5
:1008C000813099F0813030F08230D1F0833009F0FE
:1008D00067C021C02BB381E090E002C0880F991F50
:1008E0006A95E2F7282B2BBB089528B381E090E0AE
:1008F00002C0880F991F6A95E2F7282B28BB08953C
:1009000025B381E090E002C0880F991F6A95E2F755
:10091000282B25BB089522B381E090E002C0880F08
:10092000991F6A95E2F7282B22BB08954423C1F54D
:10093000813099F0813028F08230D9F0833081F510
:1009400024C02BB381E090E002C0880F991F6A9504
:10095000E2F7809582238BBB089528B381E090E075
:1009600002C0880F991F6A95E2F78095822388BBA1
:10097000089525B381E090E002C0880F991F6A9521
:10098000E2F78095822385BB089522B381E090E051
:1009900002C0880F991F6A95E2F78095822382BB77
:1009A0000895FA01813049F0813028F0823039F021
:1009B0008330C1F40EC089B303C086B301C083B3D2
:1009C00090E002C0959587956A95E2F781708083E3
:1009D000089580B390E002C0959587956A95E2F7F7
:1009E000817080830895813049F0813028F0823011
:1009F00039F0833041F406C06ABB089567BB08959F
:100A000064BB089561BB0895813049F0813028F0BE
:100A1000823039F0833041F406C06BBB089568BB67
:100A2000089565BB089562BB0895FB01813049F0CC
:100A3000813028F0823039F0833051F407C089B317
:100A400003C086B301C083B38083089580B38083DD
:100A5000089583E060E041E00E94EB0383E061E001
:100A600041E00E94EB0383E062E041E00E94EB037F
:100A700083E063E041E00E94EB0383E060E041E05B
:100A80000E945E0483E061E041E00E945E0483E036
:100A900062E041E00E945E0483E063E041E00E9486
:100AA0005E040895AF92BF92CF92DF92EF92FF92D1
:100AB0000F931F93CF93DF93D82E7A018B010E945F
:100AC0002905DD2009F056C0C801B7010E946B015D
:100AD0002DE33AE047EB5FE30E9441005B016C01CC
:100AE000EE24FF248701C0EADFE039C083E060E044
:100AF00040E00E945E04CE010197F1F783E060E0E0
:100B000041E00E945E0483E061E040E00E945E04F8
:100B1000CE010197F1F783E061E041E00E945E04BD
:100B200083E062E040E00E945E04CE010197F1F7AD
:100B300083E062E041E00E945E0483E063E040E025
:100B40000E945E04CE010197F1F783E063E041E08B
:100B50000E945E040894E11CF11C011D111DC801D6
:100B6000B7010E946B01A60195010E943B0187FD20
:100B7000BDCF59C081E0D81609F055C0C801B701F2
:100B80000E946B012DE33AE047EB5FE30E944100D6
:100B90005B016C01EE24FF248701C0EADFE039C06D
:100BA00083E063E040E00E945E04CE010197F1F72C
:100BB00083E063E041E00E945E0483E062E040E0A5
:100BC0000E945E04CE010197F1F783E062E041E00C
:100BD0000E945E0483E061E040E00E945E04CE017A
:100BE0000197F1F783E061E041E00E945E0483E059
:100BF00060E040E00E945E04CE010197F1F783E0DF
:100C000060E041E00E945E040894E11CF11C011DBB
:100C1000111DC801B7010E946B01A60195010E9438
:100C20003B0187FDBDCFDF91CF911F910F91FF90C9
:100C3000EF90DF90CF90BF90AF900895AF92BF92AA
:100C4000CF92DF92EF92FF920F931F93CF93DF9398
:100C5000D82E7A018B010E942905DD2009F08AC077
:100C6000C801B7010E946B012DE33AE047EB5FE357
:100C70000E9441005B016C01EE24FF248701C0EA61
:100C8000DFE06DC083E060E040E00E945E04CE01E2
:100C90000197F1F783E060E040E00E945E0483E0AA
:100CA00061E040E00E945E04CE010197F1F783E02D
:100CB00060E041E00E945E0483E061E040E00E9469
:100CC0005E04CE010197F1F783E061E040E00E940D
:100CD0005E0483E062E040E00E945E04CE01019782
:100CE000F1F783E061E041E00E945E0483E062E0AE
:100CF00040E00E945E04CE010197F1F783E062E0DC
:100D000040E00E945E0483E063E040E00E945E04F5
:100D1000CE010197F1F783E062E041E00E945E04BA
:100D200083E063E040E00E945E04CE010197F1F7AA
:100D300083E063E040E00E945E0483E060E040E026
:100D40000E945E04CE010197F1F783E063E041E089
:100D50000E945E040894E11CF11C011D111DC801D4
:100D6000B7010E946B01A60195010E943B0187FD1E
:100D700089CF8DC081E0D81609F089C0C801B701BC
:100D80000E946B012DE33AE047EB5FE30E944100D4
:100D90005B016C01EE24FF248701C0EADFE06DC037
:100DA00083E063E040E00E945E04CE010197F1F72A
:100DB00083E063E040E00E945E0483E062E040E0A4
:100DC0000E945E04CE010197F1F783E063E041E009
:100DD0000E945E0483E062E040E00E945E04CE0177
:100DE0000197F1F783E062E040E00E945E0483E057
:100DF00061E040E00E945E04CE010197F1F783E0DC
:100E000062E041E00E945E0483E061E040E00E9415
:100E10005E04CE010197F1F783E061E040E00E94BB
:100E20005E0483E060E040E00E945E04CE01019732
:100E3000F1F783E061E041E00E945E0483E060E05E
:100E400040E00E945E04CE010197F1F783E060E08C
:100E500040E00E945E0483E063E040E00E945E04A4
:100E6000CE010197F1F783E060E041E00E945E046B
:100E70000894E11CF11C011D111DC801B7010E945D
:100E80006B01A60195010E943B0187FD89CFDF918F
:100E9000CF911F910F91FF90EF90DF90CF90BF9077
:100EA000AF90089583E060E041E00E94EB0383E0AF
:100EB00061E041E00E94EB0383E062E041E00E94D8
:100EC000EB0383E063E041E00E94EB0383E060E03A
:100ED00040E00E945E0483E061E040E00E945E0426
:100EE00083E062E040E00E945E0483E063E040E073
:100EF0000E945E0408951F93182F83E060E041E094
:100F00000E94EB0383E061E041E00E94EB0383E099
:100F100062E041E00E94EB0383E063E041E00E9475
:100F2000EB03112391F483E061E040E00E945E0452
:100F300083E063E040E00E945E0483E060E041E023
:100F40000E945E0483E062E013C01130A1F483E0EC
:100F500060E040E00E945E0483E062E040E00E94C6
:100F60005E0483E061E041E00E945E0483E063E0B0
:100F700041E00E945E041F9108958F929F92BF925C
:100F8000CF92DF92EF92FF920F931F93DF93CF9355
:100F9000CDB7DEB769970FB6F894DEBF0FBECDBFF1
:100FA00081E089831A828B8382E08C8383E08D8346
:100FB00084E08E8385E08F8386E0888787E0898759
:100FC000DE011A96E8E6F1E080E101900D92815091
:100FD000E1F7EE2442E0842E912C8C0E9D1E6E01D2
:100FE0000894C11CD11C58C00E2D10E0F401E00F74
:100FF000F11FB08082E06B2D40E00E945E04FE8015
:1010000082E06F2DA6010E94D1048981882319F402
:1010100080E090E026C0FF8082E06F2DA6010E9454
:10102000D1048981882319F481E090E01AC0F88402
:1010300082E06F2DA6010E94D1048981882319F4D2
:1010400082E090E00EC082E067E0A6010E94D10439
:101050008981882311F015E617C083E090E037E01E
:10106000F32E000F111F000F111F0C0D1D1D080F77
:10107000191FF801118505C082E06F2DA6010E949D
:10108000D10489818823C1F382E06B2D41E00E9465
:101090005E04153639F4E394F3E0FE1508F0A4CFAE
:1010A000EE24A2CF812F69960FB6F894DEBF0FBE53
:1010B000CDBFCF91DF911F910F91FF90EF90DF9007
:1010C000CF90BF909F908F9008951F93182F81E02D
:1010D00060E040E00E945E0481E061E040E00E9448
:1010E0005E0480E0612F0E94040581E062E041E03F
:1010F0000E945E0480EA9FE00197F1F781E062E0E0
:1011000040E00E945E041F9108950F931F9380E9B1
:1011100091E028EC30E0F9013197F1F70197D9F728
:1011200084E30E94650800ED17E0C8010197F1F71C
:101130008CE00E946508C8010197F1F781E00E94E8
:1011400065081F910F9108951F93182F81E060E0AB
:1011500041E00E945E0481E061E040E00E945E04A4
:1011600080E0612F0E94040581E062E041E00E947E
:101170005E0480EA9FE00197F1F781E062E040E0E1
:101180000E945E041F91089580E048E651E060E00F
:1011900070E00E94520580E197E228EC30E0F9010E
:1011A0003197F1F70197D9F781E048E651E060E027
:1011B00070E00E94520580E197E228EC30E0F901EE
:1011C0003197F1F70197D9F780E048E651E060E008
:1011D00070E00E941E0680E197E228EC30E0F90101
:1011E0003197F1F70197D9F781E048E651E060E0E7
:1011F00070E00E941E0680E197E228EC30E0F901E1
:101200003197F1F70197D9F7FFCF2F923F924F9285
:101210005F926F927F928F929F92AF92BF92CF9286
:10122000DF92EF92FF920F931F93CF93DF93CDB78F
:10123000DEB7CA1BDB0B0FB6F894DEBF0FBECDBF07
:1012400009942A88398848885F846E847D848C84D8
:101250009B84AA84B984C884DF80EE80FD800C81E1
:101260001B81AA81B981CE0FD11D0FB6F894DEBFC4
:0C1270000FBECDBFED010895F894FFCF34
:10127C000000000000000000000102020303030351
:10128C00040404040404040405050505050505050A
:10129C0005050505050505050606060606060606EA
:1012AC0006060606060606060606060606060606D2
:1012BC0006060606060606060707070707070707BA
:1012CC0007070707070707070707070707070707A2
:1012DC000707070707070707070707070707070792
:1012EC000707070707070707070707070707070782
:1012FC00070707070707070708080808080808086A
:10130C000808080808080808080808080808080851
:10131C000808080808080808080808080808080841
:10132C000808080808080808080808080808080831
:10133C000808080808080808080808080808080821
:10134C000808080808080808080808080808080811
:10135C000808080808080808080808080808080801
:10136C0008080808080808080808080808080808F1
:10137C0008080808080808080704013D08050200C9
:08138C000906032E2B2D2A2F68
:00000001FF
