:100000000C942A000C943F000C943F000C943F0089
:100010000C943F000C943F000C943F000C943F0064
:100020000C943F000C943F000C943F000C943F0054
:100030000C943F000C943F000C943F000C943F0044
:100040000C943F000C943F000C943F000C943F0034
:100050000C943F0011241FBECFE5D8E0DEBFCDBF1A
:1000600010E0A0E6B0E0E4EDF5E002C005900D92EE
:10007000A037B107D9F70E948E020C94E8020C94C5
:1000800000004423D1F58130A1F0813030F082307E
:10009000E1F0833009F067C024C02AB381E090E02A
:1000A00002C0880F991F6A95E2F7809582238ABB68
:1000B000089527B381E090E002C0880F991F6A95E8
:1000C000E2F78095822387BB089524B381E090E016
:1000D00002C0880F991F6A95E2F78095822384BB3E
:1000E000089521B381E090E002C0880F991F6A95BE
:1000F000E2F78095822381BB08954130A1F58130DC
:1001000091F0813028F08230C9F0833061F521C050
:100110002AB381E090E002C0880F991F6A95E2F748
:10012000282B2ABB089527B381E090E002C0880FF6
:10013000991F6A95E2F7282B27BB089524B381E025
:1001400090E002C0880F991F6A95E2F7282B24BB24
:10015000089521B381E090E002C0880F991F6A954D
:10016000E2F7282B21BB08954130B1F5813099F099
:10017000813030F08230D1F0833009F067C021C087
:100180002BB381E090E002C0880F991F6A95E2F7D7
:10019000282B2BBB089528B381E090E002C0880F84
:1001A000991F6A95E2F7282B28BB089525B381E0B3
:1001B00090E002C0880F991F6A95E2F7282B25BBB3
:1001C000089522B381E090E002C0880F991F6A95DC
:1001D000E2F7282B22BB08954423C1F5813099F022
:1001E000813028F08230D9F0833081F524C02BB3E0
:1001F00081E090E002C0880F991F6A95E2F7809530
:1002000082238BBB089528B381E090E002C0880F61
:10021000991F6A95E2F78095822388BB089525B3DC
:1002200081E090E002C0880F991F6A95E2F78095FF
:10023000822385BB089522B381E090E002C0880F3D
:10024000991F6A95E2F78095822382BB0895FA018F
:10025000813049F0813028F0823039F08330C1F4A8
:100260000EC089B303C086B301C083B390E002C05F
:10027000959587956A95E2F781708083089580B39C
:1002800090E002C0959587956A95E2F7817080832A
:100290000895662389F4813049F0813028F0823056
:1002A00039F08330F9F406C01BBA089518BA0895DE
:1002B00015BA089512BA08956130A1F4813051F051
:1002C000813028F0823049F0833061F409C08FEF2B
:1002D0008BBB08958FEF88BB08958FEF85BB089582
:1002E0008FEF82BB0895813049F0813028F0823051
:1002F00039F0833041F406C06BBB089568BB0895A4
:1003000065BB089562BB08958130F1F0813030F013
:10031000823081F1833009F058C042C027E030E0DC
:1003200089B3FB01E20FF31F90E0022E02C0959506
:1003300087950A94E2F781708083215030408FEFD7
:100340002F3F380769F7089527E030E086B3FB01B7
:10035000E20FF31F90E0022E02C0959587950A9454
:10036000E2F781708083215030408FEF2F3F3807B4
:1003700069F7089527E030E083B3FB01E20FF31F34
:1003800090E0022E02C0959587950A94E2F781705D
:100390008083215030408FEF2F3F380769F7089551
:1003A00027E030E080B3FB01E20FF31F90E0022E64
:1003B00002C0959587950A94E2F781708083215059
:1003C00030408FEF2F3F380769F70895AF92BF9203
:1003D000CF92DF92EF92FF920F931F93DF93CF9311
:1003E000CDB7DEB769970FB6F894DEBF0FBECDBFAD
:1003F000DE011A96E0E6F0E080E101900D92815076
:10040000E1F719821A8281E08B8382E08C8383E09A
:100410008D8384E08E8385E08F8386E0888787E004
:10042000898700E010E022E0A22EB12CAC0EBD1EA8
:100430006E010894C11CD11CF501E00FF11FE08092
:1004400082E06E2D40E00E94B400FE8082E06F2DBD
:10045000A6010E9427018981882319F420E030E059
:1004600024C0FF8082E06F2DA6010E9427018981B0
:10047000882319F421E030E018C0F88482E06F2D61
:10048000A6010E9427018981882319F422E030E027
:100490000CC082E067E0A6010E94270189818823C1
:1004A00009F523E030E097E0F92E000F111F000F4F
:1004B000111FCE010196080F191F020F131FF8011B
:1004C000D1848C0105C082E06F2DA8010E94270114
:1004D00089818823C1F382E06E2D41E00E94B4003F
:1004E0008D2D0BC082E06E2D41E00E94B4000F5FA5
:1004F0001F4F0430110509F09FCF69960FB6F8948D
:10050000DEBF0FBECDBFCF91DF911F910F91FF9046
:10051000EF90DF90CF90BF90AF900895CF93DF938F
:1005200082E060E041E00E94410082E061E041E061
:100530000E94410082E062E041E00E94410082E0CE
:1005400063E041E00E94410082E064E040E00E94FC
:10055000410082E065E040E00E94410082E066E008
:1005600040E00E94410082E067E040E00E944100DC
:1005700082E064E041E00E94B40082E065E041E096
:100580000E94B40082E066E041E00E94B40082E094
:1005900067E041E00E94B40083E061E00E9449010D
:1005A00083E06FEF0E947301C8ECD0E00E94E60187
:1005B000682F83E00E94730180E197E2FE0131978A
:1005C000F1F70197D9F783E060E00E947301EECF65
:0405D000F894FFCFCD
:1005D4000102030405060708090A0B0C0D0E0F108F
:00000001FF
